:020000040800F2
:1000000000200020C13B00083533000837330008CA
:1000100000000000000000000000000000000000E0
:10002000000000000000000000000000393300085C
:1000300000000000000000003B3300083D330008D2
:10004000113C000800000000113C0008113C0008B1
:1000500045330008113C0008113C0008113C000821
:1000600000000000113C0008113C0008113C000891
:10007000113C0008113C0008493300080000000052
:10008000593300086D330008000000007D3300087C
:1000900091330008A1330008D9330008113C00084F
:1000A000113C0008113C0008113C0008113C0008FC
:1000B000113C0008000000000000000000000000EB
:1000C00010B5064C2378002B07D1054B002B02D02E
:1000D000044800E000BF0123237010BD1800002079
:1000E000000000006C3C0008044B10B5002B03D04E
:1000F0000349044800E000BF10BDC04600000000F6
:100100001C0000206C3C0008002243088B4274D382
:1001100003098B425FD3030A8B4244D3030B8B4208
:1001200028D3030C8B420DD3FF22090212BA030C11
:100130008B4202D31212090265D0030B8B4219D3F2
:1001400000E0090AC30B8B4201D3CB03C01A524112
:10015000830B8B4201D38B03C01A5241430B8B425A
:1001600001D34B03C01A5241030B8B4201D30B0343
:10017000C01A5241C30A8B4201D3CB02C01A52416A
:10018000830A8B4201D38B02C01A5241430A8B422D
:1001900001D34B02C01A5241030A8B4201D30B0216
:1001A000C01A5241CDD2C3098B4201D3CB01C01A30
:1001B000524183098B4201D38B01C01A524143093A
:1001C0008B4201D34B01C01A524103098B4201D328
:1001D0000B01C01A5241C3088B4201D3CB00C01A95
:1001E000524183088B4201D38B00C01A524143080D
:1001F0008B4201D34B00C01A5241411A00D2014632
:10020000524110467047FFE701B5002000F006F8A4
:1002100002BDC0460029F7D076E770477047C04658
:1002200010B504000F4B1978FA208000FFF76CFF1F
:1002300001000D4B1868FFF767FF00F089F80028F0
:100240000DD1032C01D901200AE001300022210048
:10025000404200F03FF8034B5C60002000E00120CA
:1002600010BDC046000000201400002010B5064A52
:10027000136810210B4313600020FFF7D1FF03F038
:1002800039F8002010BDC04600200240034A116822
:10029000034B1B785B1813607047C0463C0000207E
:1002A00000000020014B18687047C0463C00002049
:1002B00070B50400FFF7F6FF0500631C02D0044B85
:1002C0001B78E418FFF7EEFF401BA042FAD370BD85
:1002D0000000002070B5002811DB8308144DC033E6
:1002E0009B005C5903221040C000FC32160086407F
:1002F000B44389010A40824022435A5170BDC0B2C2
:100300000F230340083B9B0806339B00094A944691
:1003100063445D6803242040C000FF221400844031
:10032000A54389011140814029435960E6E7C04651
:1003300000E100E000ED00E0002805DB1F2318408D
:100340001E3B8340014A13607047C04600E100E055
:1003500001380A4B98420FD8094A50600948036A8D
:100360001B021B0AC02109060B4303620023936092
:1003700007331360002070470120FCE7FFFFFF00F8
:1003800010E000E000ED00E0F0B5C64600B582B038
:10039000002338E0032600E00026AE4035003D4350
:1003A0000234A400554EA551554C25684246D4430D
:1003B0002E0026404A68D20302D5424615432E003D
:1003C0004F4D2E606D682E0026404A68920302D57C
:1003D000424615432E004A4D6E60AD682E00264001
:1003E0004A68D20202D5424615432E00444DAE6003
:1003F000ED682C404A68920202D542462A43140016
:100400003F4AD46001330A681400DC4071D00125F2
:100410009D402A409046F5D04C68022C01D0122C09
:100420000ED1DC080834A400275807261E40B60069
:100430000F22B24097430A69B24016003E4326504D
:1004400002685F0003242600BE40F6433240944613
:100450004A681440BC406246144304604C68621E03
:10046000012A03D9112C01D0122C10D184683440F8
:10047000A446CC68BC406246144384604468AC43E4
:100480004A681209012515409D4025434560C4680E
:1004900026408C68BC403443C4604A68D200B1D561
:1004A000184DAE6901242643AE61AD692C4001941C
:1004B000019C9C08A51CAD00104EAF5903251D40A2
:1004C000AD000F26AE40B7439026F605B04200D1EE
:1004D00062E70D4EB04208D00C4EB04207D00C4E31
:1004E000B04200D156E7052657E7012655E7022618
:1004F00053E702B004BC9046F0BDC0460000014086
:1005000000040140001002400004004800080048B8
:10051000000C004803690B4201D100207047012004
:10052000FCE7002A01D1816270478161FCE700008D
:1005300070B582B0041E00D132E20368DB0726D515
:10054000AE4B5A680C231340042B18D0AB4B5A689F
:100550000C231340082B0ED06368012B3CD0002BDA
:1005600051D1A64B1A68A6490A401A601A68A549D3
:100570000A401A6036E0A14B5B68DB03ECD59F4B69
:100580001B689B0303D56368002B00D10BE2236833
:100590009B0773D5994B5B680C221A425DD0974B31
:1005A0005A680C231340082B53D0E368002B00D16A
:1005B00086E0924A136801210B431360FFF772FE35
:1005C00005008E4B1B689B0771D4FFF76BFE401B29
:1005D0000228F6D90320E4E1884A116880235B02EF
:1005E0000B4313606368002B25D0FFF75BFE05000B
:1005F000824B1B689B03CAD4FFF754FE401B642840
:10060000F6D90320CDE1052B09D07C4B1A687C4933
:100610000A401A601A687B490A401A60E2E7774B81
:1006200019688022D2020A431A6019688022520295
:100630000A431A60D6E7FFF735FE05006F4B1B68CB
:100640009B03A4D5FFF72EFE401B6428F6D9032098
:10065000A7E16A4B5B68DB03A7D4684B1B689B0769
:1006600004D5E368012B01D001209AE163490B68AE
:10067000F82293432269D20013430B6023681B07BF
:1006800044D5E369002B2ED05C4A536A01210B4309
:100690005362FFF707FE0500584B5B6A9B0735D492
:1006A000FFF700FE401B0228F6D9032079E15349E9
:1006B0000B68F82293432269D20013430B60DDE7F5
:1006C0004E4A136801218B431360FFF7EBFD0500D1
:1006D0004A4B1B689B07D1D5FFF7E4FD401B02285E
:1006E000F6D903205DE1454A536A01218B435362E9
:1006F000FFF7D8FD0500414B5B6A9B0706D5FFF766
:10070000D1FD401B0228F6D903204AE123685B078C
:1007100000D47FE0394BDB69DB001DD4374AD16957
:10072000802040050143D161D36903400193019BBF
:100730000125354B1B68DB0510D5A368012B21D0A3
:10074000002B36D12D4B1A6A01218A431A621A6A8C
:1007500003318A431A621AE00025EAE72A4A11683F
:1007600080235B000B431360FFF79CFD0600264BC4
:100770001B68DB05E1D4FFF795FD801B6428F6D9E3
:1007800003200EE11D4A136A01210B431362A36883
:10079000002B24D0FFF786FD0600184B1B6A9B0731
:1007A00036D4FFF77FFD801B184B9842F5D9032004
:1007B000F7E0052B09D0114B1A6A01218A431A620E
:1007C0001A6A03318A431A62E1E70C4B1A6A042160
:1007D0000A431A621A6A03390A431A62D7E7FFF713
:1007E00061FD0600054B1B6A9B0711D5FFF75AFDFB
:1007F000801B064B9842F5D90320D2E0001002403E
:10080000FFFFFEFFFFFFFBFF0070004088130000AA
:10081000012D33D02368DB0610D56369012B33D05B
:10082000053351D1644A536B04218B435363536B9B
:10083000F4318B43A169C9000B435363236A002B36
:1008400000D1B2E05C4A51680C220A40082A00D16B
:100850008AE0022B4FD0584A136858490B40136066
:10086000FFF720FD0400544B1B689B017AD5FFF76E
:1008700019FD001B0228F6D9032092E04E4AD369E5
:100880004F490B40D361C5E74B4B5A6B04210A43D8
:100890005A635A6B03390A435A63FFF703FD050095
:1008A000454B5B6B9B0706D4FFF7FCFC401B022803
:1008B000F6D9032075E040494B6BF8229343A269B7
:1008C000D20013434B63B9E73B4B5A6B04210A43F5
:1008D0005A635A6B03398A435A63FFF7E3FC0500F6
:1008E000354B5B6B9B07A9D5FFF7DCFC401B02284F
:1008F000F6D9032055E0304A136830490B401360A5
:10090000FFF7D0FC05002C4B1B689B0106D5FFF7B9
:10091000C9FC401B0228F6D9032042E0264BDA6AC4
:100920000F218A43E16A0A43DA625A6825490A407C
:10093000A16A606A01430A435A601968802252041E
:100940000A431A60FFF7AEFC04001B4B1B689B01B7
:1009500006D4FFF7A7FC001B0228F6D9032020E0ED
:1009600000201EE000201CE0012B20D0124B5A6812
:10097000D96A80235B021340606A834201D0012060
:100980000FE00F230B40E16A8B4201D0012008E009
:10099000F0239B031A40A36A9A420AD0012000E088
:1009A000012002B070BD0120FBE70020F9E7012023
:1009B000F7E70020F5E7C04600100240FFFFFFFE0A
:1009C000FFFFFFEFFFFFC2FF30B589B004AA174B4E
:1009D000180032C832C2110002680A606A46103339
:1009E00013CB13C21B681360114B5A680C231340BE
:1009F000082B19D1910C0733194004A8445C0C4909
:100A0000C96A0B406946C95CD30308D463011B1B48
:100A10009801C01AC0000419200209B030BD054871
:100A2000FFF772FB6043F8E70248F6E7843C0008F2
:100A30000010024000127A0070B504000D0000287A
:100A400000D181E0424B1A68012313408B420BD244
:100A50003F490B68012293432B430B600B681A40FC
:100A6000AA4201D0012070E023689A070ED55B07E7
:100A700005D5384A5168E023DB000B435360354A03
:100A80005368F0218B43A1680B4353602368DB0755
:100A90002DD56368012B1ED0022B22D02D4A12685F
:100AA000920753D52B494A680320824313434B6076
:100AB000FFF7F8FB0600274B5B680C221A406368BF
:100AC0009B009A4213D0FFF7EDFB801B224B98420C
:100AD000F1D9032039E01F4A12689203E2D40120C1
:100AE00033E01C4A12689201DCD401202DE0184B3F
:100AF0001A6801231340AB420BD915490B68012238
:100B000093432B430B600B681A40AA4201D001208B
:100B10001BE023685B0706D50E4A53680F490B405C
:100B2000E1680B435360FFF74FFF0A4B5A68120905
:100B30000F2313400A4AD35CD8400A4B18600020A8
:100B4000FFF76EFB002000E0012070BD0120FCE7F4
:100B5000002002400010024088130000FFF8FFFF51
:100B6000DC3E000814000020014B18687047C046A6
:100B70001400002010B5FFF7F7FF044B5A68120A63
:100B800007231340024AD35CD84010BD0010024036
:100B9000EC3E000870B582B004000368DB0335D575
:100BA0003C4BDB69DB0048D43A4AD16980204005E0
:100BB0000143D161D36903400193019B0125364B69
:100BC0001B68DB053BD5334B1B6AC02292001340E8
:100BD00013D061680A409A420FD02E4B186A2F4AF0
:100BE00002401E6A8021490231431962196A2C4E63
:100BF000314019621A62C30735D4264A136A27495D
:100C00000B4061680B431362012D3BD02368DB0767
:100C100006D5204A136B03218B43A1680B43136352
:100C200023689B0633D51B4A136B10218B43E16865
:100C30000B431363002002B070BD0025BFE7164AC6
:100C4000116880235B000B431360FFF72BFB06004A
:100C5000114B1B68DB05B6D4FFF724FB801B64280F
:100C6000F6D90320E7E7FFF71DFB0600094B1B6AD7
:100C70009B07C2D4FFF716FB801B0A4B9842F5D99D
:100C80000320D8E7D36908490B40D361BEE70020B1
:100C9000D1E7C0460010024000700040FFFCFFFF9B
:100CA000FFFFFEFF88130000FFFFFFEFF8B506000F
:100CB0000C0017001D0033689B6823401B1B5A4221
:100CC0005341BB423BD06B1CF5D0FFF7EBFA069BC0
:100CD000C01AA84201D2002DEDD132685368E0213C
:100CE0008B43536082235B0072689A420CD080234E
:100CF0009B01B26A9A4216D05D230122F254013B55
:100D00000022F25403201BE0B368802212029342B7
:100D100003D08022D2009342E9D132681368402187
:100D20008B431360E3E73268136806490B40136096
:100D30003268116880239B010B431360DCE70020BD
:100D4000F8BDC046FFDFFFFFF8B507000C00150037
:100D50001E0001E0731C0CD13A6893682340AB423B
:100D600041D0C023DB009C42F4D1002DF2D1137B93
:100D7000F0E7FFF797FA069BC01AB04201D2002EA7
:100D8000EAD13A685368E0218B43536082235B00C9
:100D90007A689A420CD080239B01BA6A9A4216D094
:100DA0005D230122FA54013B0022FA5403201BE088
:100DB000BB6880221202934203D08022D200934269
:100DC000E9D13A68136840218B431360E3E73A683E
:100DD000136806490B4013603A68116880239B0131
:100DE0000B431360DCE70020F8BDC046FFDFFFFFC8
:100DF00070B582B004000D001600C02100922B00D7
:100E000000224901FFF7A0FF002818D100962B000F
:100E1000002280212000FFF749FF002816D1C021C1
:100E200000962B000022C9002000FFF78DFF00284C
:100E30000AD0236E202213432366032004E0236E8E
:100E4000202213432366032002B070BD236E2022AC
:100E5000134323660320F7E710B5041E5ED000237A
:100E600083625D33C35C002B4CD05D230222E254CD
:100E70002268136840218B431360E368E022D200AC
:100E8000934245D90022F02109018B4205D0E0218F
:100E9000C9008B4201D00021A162216B002905D13C
:100EA000E021C9008B4236D9022323636368A1681D
:100EB0000B4321690B4361690B4380218900A069C1
:100EC00001400B43E1690B43216A0B432168A06A8F
:100ED00003430B60618B04230B40616A0B43616B1E
:100EE0000B43E1680B43216813434B602268D369CD
:100EF0000B490B40D361002323665D330122E2548A
:100F0000002010BD5C330022C25402F0C1F9ACE7EE
:100F100080225201B7E701232363C7E70120F0E7EE
:100F2000FFF7FFFFF0B585B00400019116001F0028
:100F30005C23C35C012B00D1E2E05C230122C2549C
:100F4000FFF7B0F905005D23E35C012B08D0022018
:100F50005D230122E254013B0022E25405B0F0BDC2
:100F60000199002900D1BDE0002E00D1BCE05C3326
:100F70000322E25400232366A163A687E687236445
:100F80004132A3520232A3522365E36480231B0241
:100F9000A2689A421DD023681A68520603D41A68C0
:100FA00040210A431A60E023DB00E2689A4235D907
:100FB0006368002B01D0012E1DD12368A26B12881B
:100FC000DA60A36B0233A363E38F013B9BB2E38739
:100FD00011E0226811688023DB010B431360DAE71C
:100FE000FFF760F9401BB84202D37B1C00D07DE0C4
:100FF000002F00D17CE0E38F9BB2002B5AD02368F6
:101000009A689207ECD5A26B1288DA60A36B023360
:10101000A363E38F013B9BB2E387ECE76368002B9C
:1010200001D0012E2FD1E38F9BB2012B0BD9236866
:10103000A26B1288DA60A36B0233A363E38F023BD7
:101040009BB2E3871FE0A36B1B7822681373A36B2B
:101050000133A363E38F013B9BB2E38713E0A36BF0
:101060001B781373A36B0133A363E38F013B9BB224
:10107000E38708E0FFF716F9401BB84201D37B1C59
:1010800038D1002F38D0E38F9BB2002B12D02268CA
:1010900093689B07EED5E38F9BB2012BDFD9A36B3F
:1010A0001B88D360A36B0233A363E38F023B9BB225
:1010B000E387E8E72A0039002000FFF799FE0028BF
:1010C00001D020232366A368002B06D10393236855
:1010D000DA6803929B680393039B236E002B0DD168
:1010E000002035E7012033E7012031E703202FE717
:1010F00003202DE703202BE7032029E7012027E722
:1011000002202BE730B5036A012293430362036A8E
:10111000426884697325AC430D682C430225AB43B8
:101120008D682B43144DA84208D0144DA84205D019
:10113000134DA84202D0134DA84205D10825AB4358
:10114000CD682B430425AB430B4DA84208D00B4D73
:10115000A84205D00A4DA84202D00A4DA84205D1A6
:10116000094D2A404D692A438D692A4342608461B2
:101170004A684263036230BD002C014000400140D8
:101180000044014000480140FFFCFFFF70B5036AC6
:10119000194A13400362036A4268C4697325AC4369
:1011A0000E682643154C23408C6824022343144CBC
:1011B000A04219D0124CA04208D0124CA04205D037
:1011C000114CA04202D0114CA04207D1104C144047
:1011D0004A69120122438C6925012A434260C66193
:1011E0004A68C263036270BD0A4C1C40CB681B0294
:1011F0002343094C2340DDE7FFFEFFFFFFFDFFFF18
:10120000002C0140004001400044014000480140E2
:10121000FFCFFFFFFFF7FFFFFFFBFFFF30B5036AC4
:10122000134A13400362026A4368C469114D2C409B
:101230000D682D022C43104D15408A6812032A4375
:101240000E4DA84208D00E4DA84205D00D4DA84223
:1012500002D00D4DA84204D10C4D2B404D69AD017B
:101260002B434360C4614B680364026230BDC046D7
:10127000FFEFFFFFFF8CFFFFFFDFFFFF002C0140B0
:10128000004001400044014000480140FFBFFFFF13
:1012900030B5036A046A0125AC4304628469EF3502
:1012A000AC43120122430A24A34319438261016221
:1012B00030BD000070B5046A1025AC430462856936
:1012C000046A084E354012022A43074D2A401B0784
:1012D0001B0C1343A022944309010A40224383615B
:1012E000026270BDFFFCFFFFFF0FFFFF30B5036A16
:1012F0001024A34303628469036A054D2C40120342
:101300002243A024A343090119438261016230BD35
:10131000FF0FFFFF70B5046A0B4D2C400462C469D7
:10132000056A0326B4432243F024A2431C01FF2391
:1013300023401A43054B2B400902A02424012140DD
:101340001943C261016270BDFFFEFFFFFFF5FFFFA1
:1013500070B5046A0B4D2C400462C569046A0A4EDC
:10136000354012022A43094D2A401B071B0C134328
:10137000074A22400903A024240221401143C361EB
:10138000016270BDFFEFFFFFFFFCFFFFFF0FFFFFDC
:10139000FF5FFFFF0268D36801210B43D36002683F
:1013A000916807230B40062B03D0136801210B43E0
:1013B0001360002070477047704770477047704750
:1013C00010B5040003681A6992070FD5DA6892070E
:1013D0000CD5032252421A610123037703689B69EB
:1013E0009B0763D002F028F80023237723681A694B
:1013F000520712D5DA6852070FD5052252421A61F8
:101400000223237723689A69C0239B001A4253D092
:10141000200002F011F80023237723681A691207CD
:1014200010D5DA6812070DD5092252421A61042339
:1014300023772368DB699B0745D0200001F0FCFF80
:101440000023237723681A69D20612D5DA68D206F8
:101450000FD5112252421A61082323772368DA69D3
:10146000C0239B001A4235D0200001F0E5FF002385
:10147000237723681A69D20702D5DA68D20730D4F5
:1014800023681A69120602D5DA68120630D4236876
:101490001A69520602D5DA68520630D423681A69EE
:1014A000920602D5DA68920630D410BDFFF785FFA8
:1014B0002000FFF783FF97E72000FFF77EFF200063
:1014C000FFF77CFFA7E72000FFF777FF2000FFF77B
:1014D00075FFB5E72000FFF770FF2000FFF76EFFF4
:1014E000C5E7022252421A612000FFF765FFC7E7F5
:1014F000812252421A61200000F00FFBC7E741220F
:1015000052421A612000FFF75AFFC7E721225242D8
:101510001A61200000F000FBC7E7000003681D4AC5
:10152000904202D01C4A904203D1702293434A68F1
:101530001343184A90420ED0174A90420BD0174AD4
:10154000904208D0164A904205D0164A904202D0E6
:10155000154A904203D1154A1340CA6813438022AA
:1015600093434A69134303608B68C3620B688362C9
:10157000084B984208D00A4B984205D0094B984234
:1015800002D0094B984201D10B69036301234361E7
:101590007047C046002C014000040040002000407D
:1015A000004001400044014000480140FFFCFFFFB3
:1015B00070B5041E14D03D23C35C002B0AD03D251A
:1015C00002236355211D2068FFF7A8FF01236355FF
:1015D000002070BD3C330022C25402F0D3F8EEE785
:1015E0000120F6E770B5041E14D03D23C35C002B28
:1015F0000AD03D2502236355211D2068FFF78EFF89
:1016000001236355002070BD3C330022C254FFF714
:10161000D2FEEEE70120F6E770B5041E14D03D239C
:10162000C35C002B0AD03D2502236355211D206891
:10163000FFF774FF01236355002070BD3C33002287
:10164000C25402F03BF8EEE70120F6E770B5036AFA
:10165000102293430362036A42688469174D2C4049
:101660000D682D0225432024A3438C6824012343C5
:10167000134CA04219D0124CA04208D0114CA042E9
:1016800005D0114CA04202D0104CA04207D1104C02
:1016900014404A69920022438C69A600324342609A
:1016A00085614A688263036270BD8024A3431C0085
:1016B000CB681B0123434024A343DCE7FF8CFFFFDF
:1016C000002C01400040014000440140004801401E
:1016D000FFF3FFFF70B504000D003C23C35C012B3A
:1016E00069D03C230121C15401330131C154042A82
:1016F00037D019D9082A4AD00C2A2AD129000068E3
:10170000FFF78CFD2268D16980231B010B43D36155
:101710002268D36929490B40D3612168CB692A69C2
:1017200012021343CB6114E0002A12D12900006891
:10173000FFF7E8FC2268936908210B439361226854
:10174000936904398B4393612268936929690B4338
:1017500093613D230122E254013B0022E254002028
:1017600070BD29000068FFF771FF2268916980232E
:101770001B010B4393612268936910490B409361ED
:1017800021688B692A69120213438B61E1E7290002
:101790000068FFF7FBFC2268D36908210B43D36183
:1017A0002268D36904398B43D3612268D3692969DC
:1017B0000B43D361CDE70220D2E7C046FFFBFFFF1A
:1017C00070B51400026A0125AA4302628269056AA3
:1017D0000D4EB04208D00D4EB04205D00C4EB04276
:1017E00002D00124224302E00326B2432243F02424
:1017F000A2431C01FF2323401A430A24A5430C40A3
:101800002C438261046270BD002C01400004004042
:101810000040014070B504000D003C23C35C012B67
:1018200058D03C230121C15401330131C154002A55
:101830001CD0042A2BD0082A3BD0EB686A682968A0
:101840000068FFF785FD2268D36923490B40D36107
:101850002168CB69AA6812021343CB613D230122A0
:10186000E254013B0022E254002070BDEB686A683C
:1018700029680068FFF7A4FF226893690C218B4355
:10188000936122689369A9680B439361E6E7EB686B
:101890006A6829680068FFF70DFD226893690E49A0
:1018A0000B40936121688B69AA68120213438B6114
:1018B000D4E7EB686A6829680068FFF72BFD2268A7
:1018C000D3690C218B43D3612268D369A9680B4388
:1018D000D361C3E70220C8E7FFF3FFFF30B5846898
:1018E000034D2C401B021A4311432143816030BD3C
:1018F000FF00FFFF70B5026893687024A3434C6833
:1019000023430724A3430C68234393604B68502B65
:1019100024D00BD9602B28D0702B2DD10B698A686D
:10192000C9680068FFF7DAFF002070BD402B23D1A3
:101930000B68052B22D003681D6A1A6A0124A24392
:101940001A620468A369F02293431A000B691B0111
:101950001343A36103681D620020E6E70A698968F2
:101960000068FFF795FC0020DFE70A6989680068D6
:10197000FFF7BCFC0020D8E70020D6E70120D4E721
:1019800010B504003C23C35C012B22D03C23012270
:10199000C25401330132C254FFF7ACFF002810D10A
:1019A0002268D36840218B43D3602268D3680A49F8
:1019B0000B40D3603D230122E254013B0022E2545C
:1019C00010BD3D230122E254013B0022E2540120DC
:1019D000F6E70220F4E7C046FFBFFFFF10B51F2364
:1019E000194001248C40036AA3430362036A8A40BE
:1019F0001A43026210BD000010B504000122006805
:101A0000FFF7ECFF23680E4A934208D00D4A934239
:101A100005D00D4A934202D00C4A934204D1596C2E
:101A2000802212020A435A642268916807230B40FD
:101A3000062B03D0136801210B431360002010BD57
:101A4000002C01400040014000440140004801409A
:101A500010B50400042921D009D9082924D00C2963
:101A60000CD10268D36810200343D36006E000293C
:101A700004D10268D36802200343D36001222068A6
:101A8000FFF7ACFF2268916807230B40062B03D0B9
:101A9000136801210B431360002010BD0268D36856
:101AA00004200343D360E9E70268D36808200343B6
:101AB000D360E3E730B53C23C35C012B24D03C2347
:101AC0000122C25401330132C25403685A689C682F
:101AD0007025AA430D682A435A6003680B4A934253
:101AE00005D00B4A934202D00A4A934204D1802285
:101AF00094434A6814439C603D230122C254013B35
:101B00000022C254002030BD0220FCE7002C01401E
:101B1000000400400040014070477047436F212B94
:101B200000D070473133C35A9BB2002B0CD0C36C2A
:101B30001B7802681385C36C0133C3645222835A35
:101B4000013B9BB28352ECE70268136880218B4310
:101B500013600268136840390B431360E1E7436F79
:101B6000212B00D070473133C35A9BB2002B0ED0CB
:101B7000C36C1B88DB05DB0D02681385C36C023365
:101B8000C3645222835A013B9BB28352EAE7026844
:101B9000136880218B4313600268136840390B433C
:101BA0001360DFE730B5436F202B36D1002936D0E4
:101BB000002A36D0836880246401A34220D0702498
:101BC000045D012C2FD0702401250555C1645021DE
:101BD00042520231425200224266C26721324267BB
:101BE00080225201934212D0104B43667023002290
:101BF000C2540268136880210B43136000200DE07B
:101C00000469002CDBD1CC07D9D5012006E003699B
:101C1000002BE9D1064B4366E8E7022030BD0120E6
:101C2000FCE70120FAE70220F8E7C0461D1B000888
:101C30005F1B000830B5836F202B5CD100295CD07E
:101C4000002A5CD0836880246401A3421AD07024E7
:101C5000045D012C55D0702401250555416558219E
:101C600042520231425200220266802252019342C5
:101C70000FD0002B1CD10369002B15D15C33FF2240
:101C8000C25218E00469002CE1D1CC07DFD5012055
:101C900032E00369002B03D15C331B4AC2520AE0D5
:101CA0005C23FF22C25206E05C237F22C25202E084
:101CB0005C230022C2520023C36722338367026879
:101CC000936801210B43936080235B0182689A42F1
:101CD0000BD00E4B036670230022C25402681168B9
:101CE000B0330B431360002006E00369002BF0D1F2
:101CF000074B0366EFE7022030BD0120FCE701201F
:101D0000FAE70220F8E7C046FF010000151D0008B1
:101D1000791D000810B55C23C35A826F222A05D0B2
:101D20000268936908210B43936110BD0268928C8D
:101D3000DBB21340426D1370436D013343655A2289
:101D4000835A013B9BB28352835A9BB2002BECD146
:101D50000268136807490B401360026893682331D7
:101D6000FF318B439360202383670023036601F0D8
:101D70004FFBDAE7DFFEFFFF10B55C23C25A836F2B
:101D8000222B05D00268936908210B43936110BD93
:101D900003689B8C1340426D1380436D023343658F
:101DA0005A22835A013B9BB28352835A9BB2002B27
:101DB000EDD10268136808490B401360026893680C
:101DC0002331FF318B439360202383670023036615
:101DD00001F01EFBDBE7C046DFFEFFFF10B504008D
:101DE00083680269134342691343C269134301685C
:101DF0000A686A48024013430B60226853686849C6
:101E00000B40E1680B435360226AA3691A432168BF
:101E10008B686448034013438B602368624A934293
:101E20001FD0624A934230D0102380221202E1690F
:101E300091422ED0022B00D190E077D9042B00D113
:101E400098E0082B00D0A1E06368580880231B02AB
:101E50009C4660446168FEF757F903041B0C0020A0
:101E600071E0534B1A6B03231340012B09D0002B55
:101E700005D0022B07D0032B09D01023D5E7002370
:101E8000D3E70423D1E70823CFE70023CDE70223DC
:101E9000CBE7022B2ED010D9042B37D0082B42D100
:101EA0006368580880235B029C4660446168FEF7C3
:101EB0002BF903041B0C00200DE0002B33D1FEF79F
:101EC00059FE400063685B08C0186168FEF71CF9A2
:101ED00003041B0C002037491A00103A8A4258D8D4
:101EE0000F22190091435B08083A13400B43226804
:101EF000D3602FE0636858082F4B9C4660446168AC
:101F0000FEF702F903041B0C0020E4E7FEF75CFD7A
:101F1000400063685B08C0186168FEF7F5F80304C9
:101F20001B0C0020D7E701200023D4E7002B2DD184
:101F3000FEF720FE63685B0818186168FEF7E4F896
:101F400003041B0C00201B491A00103A8A4222D8B5
:101F50002268D36000232366636610BD6368580857
:101F6000164B9C4660446168FEF7CEF803041B0CD8
:101F70000020E8E7FEF728FD63685B081818616831
:101F8000FEF7C2F803041B0C0020DCE7012000234D
:101F9000D9E70120DEE70120DCE7C046F369FFFF57
:101FA000FFCFFFFFFFF4FFFF003801400044004077
:101FB00000100240EFFF00000024F40000127A003D
:101FC000436ADB0706D5026853682C490B40816AD7
:101FD0000B435360436A9B0706D502685368284940
:101FE0000B40C16A0B435360436A5B0706D5026826
:101FF000536824490B40016B0B435360436A1B0732
:1020000006D50268536820490B40416B0B4353606F
:10201000436ADB0606D5026893681C490B40816B56
:102020000B439360436A9B0606D502689368184980
:102030000B40C16B0B439360436A5B060BD5026890
:10204000536814490B40016C0B43536080235B03BE
:10205000026C9A420AD0436A1B0606D5026853688E
:102060000D490B40816C0B43536070470268536805
:102070000A490B40416C0B435360ECE7FFFFFDFF47
:10208000FFFFFEFFFFFFFBFFFF7FFFFFFFEFFFFFF5
:10209000FFDFFFFFFFFFEFFFFFFFF7FFFFFF9FFFE8
:1020A000F0B5C64600B505000C0017009846069E20
:1020B0002B68DB6923401B1B5A425341BB423AD178
:1020C000731CF5D0FEF7EEF84346C01AB0421FD895
:1020D000002E1DD02B681A685207E9D5DA6912055F
:1020E000E6D5802212011A622A68136814490B404F
:1020F00013602A689368A331FF318B4393602023D8
:102100006B67AB67EB6750330022EA54032013E0A0
:102110002A6813680A490B4013602A689368A33140
:10212000FF318B43936020236B67AB6750330022F2
:10213000EA54032000E0002004BC9046F0BDC046F5
:102140005FFEFFFF30B583B004000023C367FEF7D6
:10215000A9F8050023681B681B070CD423681B68BB
:102160005B0715D420236367A36750330022E25432
:10217000002003B030BD80210C4B009303000022EF
:1021800089032000FFF78CFF0028E7D00320F0E749
:102190008021064B00932B000022C9032000FFF78B
:1021A0007FFF0028DED00320E3E7C046FFFFFF01EA
:1021B000F8B504000F0016001D00002839D0436F49
:1021C000002B2CD0242363672268136801218B43E2
:1021D00013602000FFF702FE01281FD0636A002B66
:1021E00023D1226891688023DB010B43936022682E
:1021F000936811490B401F43976076052D042E43C9
:1022000023681D680D4A15402E431E60226813681E
:1022100001210B4313602000FFF794FFF8BD7033DA
:102220000022C25401F00AFCCCE72000FFF7C8FEF0
:10223000D7E70120F2E7C046FF7FFFFFFFFF00FC6A
:1022400070B580256D019024E4050122290020004D
:10225000FEF767F905494A88FF310548FFF7A2FCF8
:10226000002229002000FEF75CF970BD80020020EA
:10227000E807002010B58021902000224901C00508
:10228000FEF74FF910BD884204DB5218904203DB81
:10229000002000E0002070470120FCE7884205DBB9
:1022A00012185B189A4203DB002000E00020704700
:1022B0000120FCE7C00012180420135E8B4205DBEE
:1022C0000623D35E8B4204DD002000E00020C0B274
:1022D00070470120FBE7000070B5FF23C3718371D5
:1022E00000230DE084790D786C40C579064E365D8B
:1022F00075408571054D2C5DC4710133DBB2013130
:102300009342EFD370BDC046DC3D0008DC3C0008C2
:1023100070B514001D00137A834200D070BDFF22F7
:10232000A354627A80235B42134380225200A35459
:102330000223FF33E1542600FF36FD3A310020002E
:10234000FFF7CAFFA27981235B00E254E2790423FC
:10235000FF33E254002304E0E2180021117201333C
:102360009BB2072BF8D9002323808C239B00E650D7
:1023700005236380034B0122E25400236371A847C5
:10238000CCE7C0462B02000070B50C0015000B7A9C
:10239000834200D070BD0B88082BFBD10831062288
:1023A0002000FFF799FFE288E3899A42F2D10023E7
:1023B00005E0E218117AFF3211700133DBB29AB2F4
:1023C00021888A42F5D3002304E0E218002111722B
:1023D0000133DBB2072BF8D92200FF328C239B009C
:1023E000E25008236380034B0122E254002363710F
:1023F000A847CFE72B020000F0B5CE46474680B590
:1024000083B005000C0016000B7A834204D003B0A1
:102410000CBC90469946F0BD0B88082BF7D10831CB
:1024200006222000FFF758FFE288E3899A42EED1A6
:10243000A07AE37A00021843804607B200F052FA0D
:10244000020000213800FFF71EFF002854D0227B35
:1024500001AB5A70627B1A7000229B5E99462C4A2F
:1024600019003800FFF726FF002809D1237A002B36
:10247000CDD03300220003212800FFF749FFC6E733
:102480004346DA00224BD3584A461A804346181F67
:1024900001A900F023FE237A002BB8D0002363802B
:1024A000002209E06388591C6180A118097AE318A9
:1024B000FF3319700132D2B2052AF3D92500FF3556
:1024C000A27829002000FFF707FF6288531C9BB207
:1024D000A179A218FF3211705A1C6280E279E318C8
:1024E000FF331A708C239B00E5500A4B0122E25403
:1024F00000236371B0478AE7237A002B00D186E777
:102500003300220002212800FFF702FF7FE7C046C8
:102510000C0000202B020000F0B5D6464F46464680
:10252000C0B505000C0016000B7A834204D01CBC19
:1025300090469946A246F0BD0A880A2AF7D9083182
:10254000023AD2B22000FFF7C7FEA1792288931E7B
:10255000E3181B7A9942EAD1E179013AA218137A79
:102560009942E4D1A37A1B02E27A1343217B627B76
:1025700009020A43A17B89461BB2984613B29A46C8
:1025800000F0B0F90300524692B200214046FFF736
:1025900085FE002856D0314B01221A7000210022FE
:1025A00018E0D31DE318187A0002FF231F400743E9
:1025B00013000833E3181B7AFF2087433B431F1C9B
:1025C00040460818C000264D405903800232D2B25E
:1025D0000131C9B24A45E4D3404600F086FD1F4BA5
:1025E00000221A70237A002BA1D00023638009E017
:1025F0006388591C6180A118097AE318FF331970A8
:102600000132D2B2052AF3D92500FF35A27829007C
:102610002000FFF761FE6288531C9BB2A179A218CB
:10262000FF3211705A1C6280E279E318FF331A708E
:102630008C239B00E5500B4B0122E2540023637175
:10264000B04774E7237A002B00D170E733002200F3
:1026500002212800FFF75CFE69E7C0466005002004
:102660000C0000202B020000F8B5CE46474680B58E
:1026700005000C0016000B7A834203D00CBC904678
:102680009946F8BD083106222000FFF725FEE288B2
:10269000E3899A42F2D1277B3F02627BA37AE17AF7
:1026A0001B020B439846174303D000F01BF98742E7
:1026B00006D93300220002212800FFF729FEDDE7BA
:1026C00043469BB2984600F00DF98045F1D8C146CB
:1026D000B8444346002BECDD00F004F98045E8DC0B
:1026E000FF23E554627A0133E254FD3B63807B00B3
:1026F0000222FF32A354002114E04B46CB18DB002A
:10270000184A98586288531C9BB263804578A21877
:10271000FF3215705A1C62800278E318FF331A707A
:10272000013189B28F42E8D82500FF35A27829000F
:102730002000FFF7D1FD6288531C9BB2A179A2183B
:10274000FF3211705A1C6280E279E318FF331A706D
:102750008C239B00E550044B0122E254002363715B
:10276000B0478BE70C0000202B02000070B505007D
:102770000C0016000B79042B3ED90A88002A3BD0A6
:102780004B7A033BD9B20D291BD88B001C49CB587F
:102790009F4632002100FFF767FF00232380FFF7E9
:1027A00069FD2BE032002100FFF7EEFDF5E7320076
:1027B0002100FFF721FEF0E732002100FFF7ACFE19
:1027C000EBE721000831023AD2B22000FFF784FD86
:1027D000A1792288931EE3181B7A9942DDD1E17911
:1027E000013AA218137A9942D7D13300220001216D
:1027F0002800FFF78DFDD0E70133237170BDC0467F
:10280000A43C000800B585B01C4B5A891C4B1B88A2
:102810009A422DD3194B00225A811A4B188A1A4B0F
:1028200000229B5E984206D1164B9A8A164B0221D3
:102830005B5E9A4212D0144B1880124A918A5980DA
:1028400001F030F911480268136820210B4313602E
:1028500001220F49FFF7EEF900280BD10D4B094A71
:10286000907C0293019300930B4A0C49FFF77EFF83
:1028700005B000BD00F0E2FCF0E7C04668050020AE
:10288000080000209405002034000020E807002004
:10289000B40400200C000020412200088002002027
:1028A0000E4A8B239B00D35C002B06D113008B2296
:1028B00092000121995400221A80084B00221A71BB
:1028C00019884A1C92B21A805B1805490978197256
:1028D000F62A02D9014B00221A807047800200209C
:1028E000B40400200120704770B58021184E090102
:1028F0003000FDF70FFE0125164C03002B40207819
:1029000001229043184320708021C9003000FDF758
:1029100001FE284043002078022290431843207093
:1029200020213000FDF7F6FD2840830020780422A6
:1029300090431843207040213000FDF7EBFD054027
:10294000ED002078082398430543257070BDC046EC
:10295000000800487405002070B58021184E490019
:102960003000FDF7D7FD0125164C284003012078E3
:102970001022904318432070802189003000FDF719
:10298000C9FD28404301207820229043184320703D
:102990000D4E04213000FDF7BDFD28408301207855
:1029A000402290431843207008213000FDF7B2FD0B
:1029B0000540ED0123787F2018400543257070BD48
:1029C000000400487405002000080048024BFA2269
:1029D00092009A837047C04674050020C378012B8B
:1029E0000FD0002B02D0022B1ED07047002903D03D
:1029F00001234370C370F8E7002343700370C37072
:102A0000F3E700290BD003780133DBB20370934264
:102A1000EBDB0223437000220270C370E5E703235F
:102A20004370013BC370E0E7002902D004234370E8
:102A3000DBE70023C370D8E70378002B02D0022B1A
:102A40000ED07047002907D00223037241688C46DC
:102A5000624442600370F4E7002303720370F0E7FE
:102A6000002902D004230372EBE70523037200233D
:102A70000370E6E710B5FFF737FFFFF76DFFFFF7CD
:102A8000A5FF0F4C21788907C90F02220D48FFF7D7
:102A9000A5FF2178C907C90F02220B48FFF79EFF47
:102AA00021784907C90F02220848FFF797FF2178CC
:102AB0000907C90F02220648FFF790FF10BDC04664
:102AC0007405002038050020EC0400205405002087
:102AD000B8040020F8B5304B5B78042B04D02F4BA2
:102AE0005B78042B2BD0F8BD2D4D40212800FDF73D
:102AF00011FD01002B4C01222000FFF79DFF8021DA
:102B00002800FDF707FD010020000C300122FFF72F
:102B100093FF254D01212800FDF7FCFC0100234C0B
:102B200001222000FFF788FF02212800FDF7F2FCB8
:102B3000010020000C300122FFF77EFFD3E7184F81
:102B400040213800FDF7E6FC010001256D42154EDD
:102B50002A003000FFF770FF01211348FDF7DAFC6F
:102B60000100124C2A002000FFF766FF8021380088
:102B7000FDF7D0FC010030000C302A00FFF75CFFAD
:102B800002210948FDF7C6FC010020000C302A0094
:102B9000FFF752FFA7E7C04638050020EC040020ED
:102BA00000040048BC040020000800483C05002048
:102BB00070B505000278D207D20F80210E4CC900F3
:102BC0002000FDF7AEFC2A789207D20F8021090180
:102BD0002000FDF7A6FC2A785207D20F8021890138
:102BE0002000FDF79EFC2A781207D20F8021C90130
:102BF0002000FDF796FC70BD0004004800B583B0CE
:102C00006B46D91D087001235B4201220248FEF782
:102C100089F903B000BDC046C405002010B590245A
:102C2000E405002210212000FDF77BFC0620FFF7C1
:102C3000E5FF012210212000FDF773FC10BD70B5E7
:102C400004000E009025ED05002210212800FDF75C
:102C500068FC0520FDF72CFB0220FFF7CFFF230ABD
:102C600007201840FFF7CAFFE0B2FFF7C7FF3000A8
:102C7000FFF7C4FF0520FDF71BFB012210212800F0
:102C8000FDF74FFC70BDF8B507000E0015000024DD
:102C900009E0FFF7C3FF3178E01980B2FFF7CFFFFB
:102CA0000134A4B20136ABB2A342F2D8F8BD0000A1
:102CB00070B52A4B02229A80DA800024002514E0A5
:102CC0000123ED18EDB2312C38D80134E4B2A8B2AA
:102CD000002100F00BFAA0B2012100F007FA204811
:102CE000FFF766FF3220FDF7E3FA40211D48FDF7AC
:102CF00011FC002805D008211B48FDF70BFC00281B
:102D00001FD1174A137802210B4308210B4313707C
:102D1000312D07D8154A5368D2699B1A002BCFDD95
:102D20000223CEE7114A5368D2699B1A002B03DDB8
:102D30000123ED1AEDB2C6E70223FAE7013CE4B243
:102D4000C5E7064B00229A80DA800021002000F0BF
:102D5000CDF90121002000F0C9F970BD94050020D3
:102D6000640500200004004800080048F00400202A
:102D70000E4B1B7F002B11D00D4A137804218B437F
:102D800004318B431370094B1A7F101D4000002142
:102D9000C1525200D1529B1899807047044A13784F
:102DA00001218B4301318B431370ECE79405002024
:102DB0006405002010B51C4B5B78042B06D0042B57
:102DC0000BD01A4B5B78042B1AD010BD174A5278DF
:102DD000042AF4D1FFF7CCFFF7E7154A137F590017
:102DE00001208852002B05D1124A137801210B4390
:102DF0001370EAE70F4A137804210B431370E4E7DA
:102E00000B4B1B7F002B09D10A490A780220024391
:102E10000A705B00064A02219952D6E705490A78F2
:102E2000082002430A70F4E738050020EC04002073
:102E30009405002064050020F8B5744C2077FFF756
:102E4000B9FF237F724A5D00E818C1005118486835
:102E50005E425E4171008919CF00D2195268821A10
:102E600092B22C5F022C5DD001214A4312B2002C99
:102E70000AD05D00654949190425495F002903D13D
:102E80005D00624949198C80632803DC61494978F7
:102E9000042949D0002804D05C49C918897E012939
:102EA00049D05A49C91800248C765A4949780429CE
:102EB00000D16BE058494978042962D0191D4900B6
:102EC0005248095E002900DC8CE089B2002A00DC4F
:102ED00086E0052204335B00891A4C4A9952082186
:102EE0004E48FDF717FB012800D17EE040214C48F9
:102EF000FDF710FB012800D17BE0444B08229B5ECC
:102F0000002B00DA79E0414B0A229B5E002B00DAAD
:102F100077E03E4A117F0B1D5B0089B2D05A00F06A
:102F2000E5F8F8BD3F49A0E73849CD180124AC7653
:102F300089198C76AEE71A1D52003449525E312A47
:102F40000FDC92B232484168C069091A002906DDD7
:102F5000022104335B0052182C495A52BFE7012169
:102F6000F7E792B22A484168C069091A002906DDCC
:102F7000012104335B00521A24495A52AFE702215F
:102F8000F7E72949898B884200DB97E71F495800FA
:102F9000445E09180420095E8C4200D08EE7191D9A
:102FA00049001A48095E62290BDC89B2002A06DD55
:102FB000012204335B008918144A99528FE70222D8
:102FC000F7E7002A05DD04335B0001390F4A995207
:102FD00085E70E4A04367600B35A013BB3527EE7CA
:102FE000042277E7FFF7C4FE79E7094B0022DA6194
:102FF0007CE7074B00225A607FE7044B00221A81CE
:1030000081E7024B00225A8183E7C04694050020E5
:10301000F0040020EC0400203805002000080048DF
:1030200000040048FFFF00007405002070B58AB05E
:103030001422002105A800F011FE244B59698020BC
:10304000C003014359615A6902400192019A5969CA
:1030500080200003014359615A6902400292029A9A
:10306000596980208002014359615A6902400392E4
:10307000039A5A698021C9020A435A615B690B406D
:103080000493049BFC263602114D002231002800D7
:10309000FDF747FA0F4B059300240694079405A902
:1030A0000D48FDF771F905960123069307940894DE
:1030B00005A92800FDF768F9C02305930694079435
:1030C00005A92800FDF760F90AB070BD00100240A4
:1030D000000400486F0C00000008004810B54000D4
:1030E00080B20222FFF7CFFD10BD704730B589B026
:1030F00060230193029000230393059300290CD0D1
:103100000425074C2A0001A92000FEF7E3FA290054
:103110002000FEF771FC09B030BD0025F1E7C04684
:10312000A806002030B595B0282200210AA800F09A
:1031300095FD1022002104A800F090FD102200212E
:10314000684600F08BFD012508950995022410942E
:1031500080235B02119380235B03129308A8FDF781
:10316000E7F90723049305940024069407940121AA
:1031700004A8FDF761FC009502946846FDF70AFD7E
:1031800015B030BD10B5FDF771F8FFF7CBFFFFF7B5
:103190004DFF00F055F800F0C9FB00F02FFC00F0E7
:1031A0009BF900F0B1F900F049F900F0C5F900F021
:1031B00011FA00F049FAFA208000FDF779F8174873
:1031C000FEF7E8F81648FEF7E5F81648FEF7E2F8CD
:1031D00000211548FEF73CFC00211448FEF738FC9E
:1031E000134B1A68136820210B4313600122114905
:1031F0000F48FEF71FFD0028F8D1FFF759FDFFF734
:1032000039FC0020FFF718FE0120FFF715FE0A48E1
:10321000FFF7CEFC3220FDF74BF8F0E7A8060020C0
:10322000E806002068070020A807002068060020A4
:10323000E8070020B4040020640500207047000067
:1032400010B51148114B036082235B0043600023DB
:103250008360C0229200C260036143618022D20277
:1032600082611822C261036243628362113AC262C0
:10327000036308334363FDF7EFFD002800D110BD61
:10328000FFF7DCFFFBE7C046C4050020003001402B
:1032900010B588B004001422002103A800F0DEFC61
:1032A0002268124B9A4201D008B010BD104B9969A8
:1032B00080204001014399619A6902400192019A7C
:1032C0005A69802189020A435A615B690B40029363
:1032D000029BF0230393EE3B04930133069390206B
:1032E00003A9C005FDF750F8DEE7C04600300140F5
:1032F0000010024000B583B00D4B996901221143C3
:10330000996199690A400092009ADA698021490519
:103310000A43DA61DB690B400193019B0022002123
:103320000420FCF7D7FF0420FDF706F803B000BD2A
:10333000001002407047FEE77047704710B5FCF779
:10334000A5FF10BD7047000010B50248FEF738F821
:1033500010BDC0462807002010B50348FEF730F81E
:10336000FFF750FA10BDC046A806002010B502486D
:10337000FEF726F810BDC046E806002010B5034849
:10338000FEF71EF8FFF7A6FB10BDC0466807002039
:1033900010B50248FEF714F810BDC04628060020FC
:1033A00010B50A48FEF70CF8094B06229B5E012B6C
:1033B00002D0022B05D010BD064AD3690133D36178
:1033C000F9E7044AD369013BD361F4E7A807002079
:1033D00094050020F004002010B50A48FDF7F0FF26
:1033E000094B04229B5E012B02D0022B05D010BD9D
:1033F000064A536801335360F9E7044A5368013BB6
:103400005360F4E76806002094050020F0040020D3
:1034100010B50268054B9A4200D010BDFFF740FA84
:10342000012203490348FEF705FCF6E70038014096
:10343000B4040020E80700207047704700B587B04B
:103440000822002104A800F009FC1022002168468F
:1034500000F004FC1D481E4B036001234360002361
:1034600083601C4AC260036143618361FEF7D4F844
:1034700000281ED100230493059304A91348FEF7E6
:1034800019FB002818D10023009301220192029316
:103490000393002269460D48FEF7BCF900280ED1BF
:1034A0000C2269460948FEF7B5F900280AD107B091
:1034B00000BDFFF7C3FEDDE7FFF7C0FEE3E7FFF760
:1034C000BDFEEDE7FFF7BAFEF1E7C0462807002092
:1034D000002C0140FFFF000010B50948094B0360B4
:1034E00030234360002383606322C2608361FEF760
:1034F0005FF8002800D110BDFFF7A0FEFBE7C04633
:10350000E80600200010004010B50948094B036090
:1035100030234360002383600922C260036183611A
:10352000FEF746F8002800D110BDFFF787FEFBE745
:10353000680700200020004000B587B00822002165
:1035400004A800F08BFB10220021684600F086FBE7
:103550001D481E4B036001234360002383601C4A07
:10356000C260036143618361FEF756F800281ED1F3
:1035700000230493059304A91348FEF79BFA00283F
:1035800018D1002300930122019202930393002299
:1035900069460D48FEF73EF900280ED1042269461F
:1035A0000948FEF737F900280AD107B000BDFFF738
:1035B00045FEDDE7FFF742FEE3E7FFF73FFEEDE7FD
:1035C000FFF73CFEF1E7C04628060020004001401E
:1035D000FFFF000000B585B010220021684600F012
:1035E0003DFB1648164B03600123436000238360B4
:1035F000144AC260036143618361FDF7D9FF00286B
:1036000013D10E48FEF708F8002811D100230093CB
:103610000122019202930393002269460748FEF7B4
:10362000F9F8002807D105B000BDFFF707FEE8E76D
:10363000FFF704FEEAE7FFF701FEF4E7A807002022
:1036400000440140FFFF000000B585B010220021BA
:10365000684600F003FB1648164B036001234360E5
:1036600000238360144AC260036143618361FDF7F4
:103670009FFF002813D10E48FDF7CEFF002811D17F
:1036800000230093012201920293039300226946D2
:103690000748FEF7BFF8002807D105B000BDFFF7C7
:1036A000CDFDE8E7FFF7CAFDEAE7FFF7C7FDF4E75E
:1036B0006806002000480140FFFF000010B58AB0F6
:1036C00004001422002105A800F0C8FA23682A4A41
:1036D000934204D0294A934228D00AB010BD284B07
:1036E000996980200001014399619A690240019221
:1036F000019A5A69802189020A435A615B690B4029
:103700000293029B90231B010593022306930993C6
:10371000902005A9C005FCF737FE002200210E20ED
:10372000FCF7D8FD0E20FCF707FED6E7144B99698D
:1037300080204002014399619A6902400392039AF2
:103740005A69802189020A435A615B690B400493DC
:10375000049B0C2305930A3B0693902005A9C00502
:10376000FCF712FE002200211420FCF7B3FD142008
:10377000FCF7E2FDB1E7C046002C014000400140EB
:103780000010024010B58CB004001422002107A8DC
:1037900000F064FA2368494A93420DD0484A9342A4
:1037A0001CD0484A93422BD0474A93423BD0474AC9
:1037B00093425ED00CB010BD454AD1690223194333
:1037C000D161D26913400093009B00220021102098
:1037D000FCF780FD1020FCF7AFFDEBE73C4AD16918
:1037E00010231943D161D26913400193019B002238
:1037F00000211120FCF76EFD1120FCF79DFDD9E79B
:10380000334AD169802040000143D161D36903402C
:103810000293029B00220021ED38FCF75BFD132090
:10382000FCF78AFDC6E72A4B996980208002014394
:1038300099619A6902400392039A5A698021C902E8
:103840000A435A615B690B400493049B80235B002D
:103850000793FE3B08930B9307A91E48FCF794FDC2
:10386000002200211520FCF735FD1520FCF764FD32
:10387000A0E7174B99698022D20211439961996997
:103880001140059105995969114359615B691A40C5
:103890000692069B80239B000793FF3BFF3B089308
:1038A0000B9307A90B48FCF76FFD0022002116209F
:1038B000FCF710FD1620FCF73FFD7BE700040040FD
:1038C000001000400020004000440140004801403A
:1038D000001002400004004810B586B00400142215
:1038E000002101A800F0BAF922680D4B9A4201D0DC
:1038F00006B010BD0B4A51698020C00201435161DE
:10390000536903400093009B302301932E3B0293A5
:10391000013B059301A90448FCF736FDE8E7C046E2
:1039200000040040001002400004004800B58FB0C1
:103930001422002109A800F091F90822002107A80B
:1039400000F08CF91C220021684600F087F9294814
:10395000294B036030234360002383606322C260ED
:1039600003618361FDF724FE002830D12148FDF773
:1039700039FE00282ED1002309930A9309A91D4876
:10398000FDF7FEFF002828D100230793089307A91D
:103990001848FEF78FF8002822D1602300930023F7
:1039A0000193022202920493002269461148FDF716
:1039B00091FE002817D1042269460E48FDF78AFEC1
:1039C000002813D10B48FFF787FF0FB000BDFFF7AA
:1039D00035FCCBE7FFF732FCCDE7FFF72FFCD3E751
:1039E000FFF72CFCD9E7FFF729FCE4E7FFF726FCFB
:1039F000E8E7C046A80600200004004010B50D48C6
:103A00000D4B036096231B02436000238360C36059
:103A100003610C2242618361C3610362436200223D
:103A20000021FEF7C5FB002800D110BDFFF706FC02
:103A3000FBE7C046E80700200038014010B588B019
:103A400004001422002103A800F008F92268134B97
:103A50009A4201D008B010BD114B99698020C00175
:103A6000014399619A6902400192019A5A69802141
:103A700089020A435A615B690B400293029BB0239F
:103A80005B0103930223049301330693023B0793E4
:103A9000902003A9C005FCF777FCDBE70038014064
:103AA0000010024010B506282CD88000404B1B584F
:103AB0009F46404B9622D2005A60052900D96EE0FD
:103AC00089003D4B5B589F463A4B962212015A6043
:103AD000F3E7384B962252015A60EEE7354B9622B7
:103AE00092015A60E9E7334B9622D2015A60E4E72B
:103AF000304B962212025A60DFE72E4BE12212026F
:103B00005A60DAE72B4B962292015A60D5E7294B8F
:103B100000229A601A61DA602648284B03600C2361
:103B2000436100238361C361036243620022002179
:103B3000FEF73EFB002838D110BD1E4B00229A60D4
:103B40001A6180229201DA60E6E71A4B8022520164
:103B50009A60C022D2001A610022DA60DCE7154BBD
:103B6000802252019A60C022D2001A618022920102
:103B7000DA60D1E70F4B802252019A608022D20096
:103B80001A610022DA60C7E70A4B802252019A606C
:103B90008022D2001A6180229201DA60BCE7054BD4
:103BA00000229A601A61DA60B6E7FFF747FBC3E7C5
:103BB000F43E0008E8070020103F000800380140EC
:103BC0000D4885460D480E490E4A002302E0D458A0
:103BD000C4500433C4188C42F9D30B4A0B4C002355
:103BE00001E013600432A242FBD3FFF726FC00F091
:103BF00011F8FFF7C7FAFEE70020002000000020C0
:103C000018000020303F000818000020680800203D
:103C1000FEE7000070B500260C4D0D4C641BA4108F
:103C2000A64209D1002600F021F80A4D0A4C641B77
:103C3000A410A64205D170BDB300EB5898470136D9
:103C4000EEE7B300EB5898470136F2E7283F00084B
:103C5000283F0008283F00082C3F000803001218E6
:103C6000934200D1704719700133F9E7F8B5C046A7
:103C7000F8BC08BC9E467047F8B5C046F8BC08BC06
:043C80009E467047A5
:103C840002030405060708090A0B0C0D0E0F101099
:103C94000102030405060708090A0B0C0D0E0F1098
:103CA4009227000892270008C2270008AE270008C0
:103CB400C2270008A4270008C2270008C22700085A
:103CC400C2270008C2270008C2270008C22700082C
:103CD400C2270008B827000800C0C101C30302C2FC
:103CE400C60607C705C5C404CC0C0DCD0FCFCE0E38
:103CF4000ACACB0BC90908C8D81819D91BDBDA1AA8
:103D04001EDEDF1FDD1D1CDC14D4D515D71716D617
:103D1400D21213D311D1D010F03031F133F3F23287
:103D240036F6F737F53534F43CFCFD3DFF3F3EFEF7
:103D3400FA3A3BFB39F9F83828E8E929EB2B2AEA67
:103D4400EE2E2FEF2DEDEC2CE42425E527E7E626D7
:103D540022E2E323E12120E0A06061A163A3A26247
:103D640066A6A767A56564A46CACAD6DAF6F6EAEB7
:103D7400AA6A6BAB69A9A86878B8B979BB7B7ABA27
:103D8400BE7E7FBF7DBDBC7CB47475B577B7B67697
:103D940072B2B373B17170B0509091519353529207
:103DA40096565797559594549C5C5D9D5F9F9E5E77
:103DB4005A9A9B5B99595898884849894B8B8A4AE7
:103DC4004E8E8F4F8D4D4C8C448485458747468657
:103DD400824243834181804000C1814001C08041CF
:103DE40001C0804100C1814001C0804100C18140C7
:103DF40000C1814001C0804101C0804100C18140B7
:103E040000C1814001C0804100C1814001C08041A6
:103E140001C0804100C1814001C0804100C1814096
:103E240000C1814001C0804100C1814001C0804186
:103E340001C0804100C1814000C1814001C0804176
:103E440001C0804100C1814001C0804100C1814066
:103E540000C1814001C0804101C0804100C1814056
:103E640000C1814001C0804100C1814001C0804146
:103E740001C0804100C1814000C1814001C0804136
:103E840001C0804100C1814001C0804100C1814026
:103E940000C1814001C0804100C1814001C0804116
:103EA40001C0804100C1814001C0804100C1814006
:103EB40000C1814001C0804101C0804100C18140F6
:103EC40000C1814001C0804100C1814001C08041E6
:103ED40001C0804100C181400000000000000000DA
:103EE400010203040607080900000000010203049C
:103EF400B23A0008C83A0008D23A0008DC3A00088E
:103F0400E63A0008F03A0008FA3A00080E3B0008C6
:103F14003A3B00084A3B00085E3B0008743B00083B
:043F2400883B0008CE
:043F2800E9000008A4
:043F2C00C1000008C8
:103F300001000000040000000A000000D804002076
:083F40000F2731F800127A008E
:0400000508003BC1F3
:00000001FF
